:020000040000FA
:10000000000700206D020000710200007302000072
:100010007502000077020000790200000000000075
:100020000000000000000000000000007B02000053
:100030007D020000000000007F020000810200003D
:10004000830200008302000083020000830200009C
:10005000830200008302000083020000830200008C
:10006000830200008302000083020000830200007C
:10007000830200008302000083020000830200006C
:10008000830200008302000083020000830200005C
:10009000830200008302000083020000830200004C
:1000A000830200008302000083020000830200003C
:1000B0008302000083020000C908000083020000E0
:1000C000830200008302000083020000830200001C
:1000D000830200008302000083020000830200000C
:1000E00083020000830200008302000083020000FC
:1000F00083020000830200008302000083020000EC
:1001000083020000830200008302000083020000DB
:1001100083020000830200008302000083020000CB
:1001200083020000830200008302000083020000BB
:1001300083020000830200008302000083020000AB
:1001400000000000000000000000000000000000AF
:100150008302000083020000FD18000083020000FB
:10016000000000000000000000000000000000008F
:10017000000000000000000000000000000000007F
:10018000000000000000000000000000000000006F
:10019000000000000000000000000000000000005F
:1001A000000000000000000000000000000000004F
:1001B0001D1900008302000083020000830200007A
:1001C000830200008302000083020000830200001B
:1001D000830200008302000083020000830200000B
:1001E00083020000830200008302000083020000FB
:1001F00083020000830200008302000083020000EB
:10020000830200008302000083020000000000005F
:1002100083020000830200008302000083020000CA
:1002200083020000830200008302000083020000BA
:1002300083020000830200008302000083020000AA
:10024000830200008302000083020000830200009A
:10025000830200008302000083020000830200008A
:1002600083020000830200008302000000F00AB84D
:10027000FEE7FEE7FEE7FEE7FEE7FEE7FEE7FEE756
:10028000FEE7FEE700F002F800F03AF80AA090E876
:10029000000C82448344AAF10107DA4501D100F041
:1002A0002FF8AFF2090EBAE80F0013F0010F18BFD4
:1002B000FB1A43F0010318472029000040290000E1
:1002C000103A24BF78C878C1FAD8520724BF30C882
:1002D00030C144BF04680C60704700000023002454
:1002E00000250026103A28BF78C1FBD8520728BF46
:1002F00030C148BF0B6070471FB51FBD10B510BDA2
:1003000000F029F81146FFF7F7FF01F057FE00F063
:1003100047F803B4FFF7F2FF03BC00F04BF800000E
:1003200072B6704762B67047EFF3108072B67047CE
:1003300080F31088704730BF704702480249014A75
:10034000024B70470003002000070020000300203C
:10035000704770477047754600F028F8AE460500B4
:100360006946534620F00700854618B020B5FFF7D0
:10037000E4FFBDE820404FF000064FF000074FF0CB
:1003800000084FF0000B21F00701AC46ACE8C009B3
:10039000ACE8C009ACE8C009ACE8C0098D467047BC
:1003A0000446AFF300802046FFF7B3FF00487047D4
:1003B000A002002001491820ABBEFEE72600020083
:1003C000704700000148006870470000A890034093
:1003D00008B52B48006840F008002A49C1F8080118
:1003E000274800680090264800680090264800686A
:1003F00020F00800244908602448006840F0080004
:10040000224908602248006820F00800204908605E
:100410002048006840F008001E4908601948D0F8DC
:10042000000140F400301749C1F800014FF000000E
:10043000009002E00098401C009000981428F9D326
:1004400001201549086040F2231014490862002079
:1004500008600846406940F4704048610320086322
:1004600004200F4908604FF006000C49C1F8A400B1
:100470004FF0000088604FF00800086008BD0000E1
:1004800008E10F4000E00F4000740040207400407D
:100490001C75004028750040C49F03400090034035
:1004A000A090034010B50020114908601AE01148DF
:1004B000006840F004001049C1F8FC034FF014003C
:1004C00001F0EEF90C48D0F8FC0320F004000A49D2
:1004D000C1F8FC03142001F0E3F905480068401C52
:1004E00003490860024800680328E0DB10BD0000F3
:1004F0005C000020FC5300400050004010B500207C
:10050000114908601AE01148006840F008001049DD
:10051000C1F8FC034FF0140001F0C2F90C48D0F808
:10052000FC0320F008000A49C1F8FC03142001F084
:10053000B7F905480068401C034908600248006894
:100540000328E0DB10BD00005C000020FC530040ED
:100550000050004010B50020114908601AE0114811
:10056000006840F010001049C1F8FC034FF014007F
:1005700001F096F90C48D0F8FC0320F010000A496D
:10058000C1F8FC03142001F08BF905480068401CF9
:1005900003490860024800680328E0DB10BD000042
:1005A0005C000020FC5300400050004010B500F0FB
:1005B00043FA0121084600F0E5FC13A000F034FBEB
:1005C0000321022000F0DEFC12A000F02DFB04212C
:1005D000022000F0D7FC12A000F026FB13E00A2056
:1005E00001F05EF911480078012804D100200F497C
:1005F0000870012010BD0E480078012803D10020AA
:100600000B490870F6E7EAE7506C617920416761B1
:10061000696E3F00535731202D20535732000000A0
:10062000596573202D204E6F0000000054000020FB
:10063000550000200348006820F008000249C1F876
:10064000FC037047FC530040005000400348006822
:1006500020F010000249C1F8FC037047FC53004031
:10066000005000400A48006820F004000949C1F821
:10067000FC030846D0F8FC0320F00800C1F8FC0396
:100680000846D0F8FC0320F01000C1F8FC037047C6
:10069000FC5300400050004010B50446582C05D1D2
:1006A0001F480068401C1E49086004E01D4800689F
:1006B000401C1C49086000F0BFF90321022000F033
:1006C00061FCE0B200F094FA0421084600F05AFC04
:1006D00015A000F0A9FA00F0BBF9322001F0E0F813
:1006E00000F0AAF90321022000F04CFC10A000F059
:1006F0009BFA0B49098888B200F0A2FA0421022073
:1007000000F040FC0BA000F08FFA0649098888B27F
:1007100000F096FA322001F0C3F800F07DF910BD28
:10072000000000200400002077696E7300000000C4
:10073000583A20004F3A200010B500F07DF9554896
:10074000807D401EC1B20023524A184600F046FB8D
:1007500000F07EF9012001F0A3F84E4A927D521E6E
:10076000D1B24C4A927D921CD0B20023494A00F08B
:1007700035FB00F06DF9012001F092F8454A927DB9
:10078000521ED1B2434A927D521E5200921DD0B2E7
:100790000023404A00F022FB00F05AF9012001F04A
:1007A0007FF83C48807D401E4000C01CC1B2002341
:1007B000384A184600F012FB00F04AF9012001F017
:1007C0006FF8344A927D521E5200D21CD1B2314A87
:1007D000927D921CD0B200232E4A00F0FFFA00F066
:1007E00037F9012001F05CF82A4A927D521E52002E
:1007F000D21CD1B2274A927D521E5200921DD0B215
:100800000023244A00F0EAFA00F022F9012001F066
:1008100047F82048807D401E00EB4000801DC1B29B
:1008200000231C4A184600F0D9FA00F011F9012003
:1008300001F036F8174A927D521E02EB4202921DD9
:10084000D1B2144A927D921CD0B20023114A00F01A
:10085000C5FA00F0FDF8012001F022F80D4A927D62
:10086000521E02EB4202921DD1B20A4A927D521EE2
:100870005200921DD0B20023064A00F0AFFA00F0F9
:10088000E7F8012001F00CF800F0E2F801F058FB65
:1008900010BD0000E822000010B500F0BDF80321F3
:1008A000022000F06FFB06A000F0BEF900F002FF8E
:1008B000142000F0F5FFFFF7D5FE00F0ADF810BDF5
:1008C000476F6F646279650010B528480068D0F8FA
:1008D000180410F0100F20D0032000F0E1FF23488F
:1008E0000068D0F8FC0310F0100F0CD10120204953
:1008F00008701E480068D0F8FC0340F008001B494F
:100900000968C1F8FC0319480068D0F81C0440F0DD
:10091000100116480068C0F81C1414480068D0F88C
:10092000180410F0010F20D0032000F0B9FF0F4889
:100930000068D0F8FC0310F0010F0CD101200D4924
:1009400008700A480068D0F8FC0340F0040007492A
:100950000968C1F8FC0305480068D0F81C0440F0A1
:10096000010102480068C0F81C1410BD4C000020B2
:10097000540000205500002010B5002009490860EF
:100980005820094908704FF0FF30084908600024DA
:1009900003E0202006490855641C092CF9DB00F00F
:1009A00071FE10BD0C00002014000020100000207B
:1009B0006000002010B50221012000F0E3FA10A031
:1009C00000F032F9322000F06BFF00F025F8022130
:1009D000052000F0D7FA0DA000F026F90421084602
:1009E00000F0D0FA0AA000F01FF900F063FE3220F8
:1009F00000F056FFFFF736FE00F00EF810BD0000C5
:100A000020584F2047414D4500000000580000008D
:100A1000537461727400000010B5002404E00021DA
:100A2000012001F0A5FA641CB4F5FC7FF7DB00217E
:100A3000084600F0A7FA10BD002003E00021034A99
:100A40001154401CB0F5FC7FF8DB704769000020B2
:100A500010B5024800F004F810BD00006900002045
:100A600070B505460021084600F08CFA002404E029
:100A70002957012001F07CFA641CB4F5FC7FF7DBF8
:100A800070BD000008B54E48006840F010004D49A8
:100A9000C1F804010846D0F8080140F00100C1F88F
:100AA00008014948006800904848006840F0C000CC
:100AB000464908604648006840F02C0044490860F8
:100AC0000846006820F0C00008604248006840F016
:100AD000EC004049086040480068404900EA0100D5
:100AE0003F4908443C4908600846006820F07F40C0
:100AF0000860A1F10400006820F0EC00A1F10401FD
:100B000008603848406820F00200364948600846CE
:100B1000406820F0040048603348006820F00F006F
:100B2000314908602F48006920F0FF0000F11800EB
:100B30002C490861084600684FF6C07120EA0100A0
:100B4000284908600846006820F030000860084620
:100B5000006820F00F0000F10700086008464068B8
:100B600040F0020048604FF000004FF04021C1F813
:100B70000002009002E00098401C009000980A28B3
:100B8000F9D38020194908604FF021014FF000008F
:100B900001F0EEF96FF04601002001F0E9F90421BF
:100BA000002001F0E5F91421002001F0E1F92021F5
:100BB000002001F0DDF90C21002001F0D9F908BD79
:100BC00004E10F4000E00F4008E10F400044004006
:100BD000204400401C4500402C450040FF000FFF12
:100BE0000022200000800040C88F004000420040EA
:100BF00070B505460021012001F0BAF900240AE091
:100C0000A5F1200000EB8000064A104401570120A6
:100C100001F0AEF9641C052CF2DB0021012001F08B
:100C2000A7F970BD5228000010B5044603E02078F3
:100C3000FFF7DEFF641C20780028F8D110BD00000B
:100C400070B504460A2C08DA60A0FFF7EDFF04F146
:100C50003001C8B2FFF7CCFFB6E0642C15DA5DA016
:100C6000FFF7E2FF0A2094FBF0F03030C5B22846CF
:100C7000FFF7BEFF0A2094FBF0F100FB114030307B
:100C8000C5B22846FFF7B4FF9EE0B4F57A7F23DAB9
:100C900051A0FFF7C9FF642094FBF0F03030C5B2DB
:100CA0002846FFF7A5FF642094FBF0F100FB1140FC
:100CB00084B20A2094FBF0F03030C5B22846FFF72A
:100CC00097FF0A2094FBF0F100FB11403030C5B2D1
:100CD0002846FFF78DFF77E042F21070844233DA46
:100CE0002020FFF785FF4FF47A7094FBF0F030304E
:100CF000C5B22846FFF77CFF4FF47A7094FBF0F101
:100D000000FB114084B2642094FBF0F03030C5B297
:100D10002846FFF76DFF642094FBF0F100FB1140C3
:100D200084B20A2094FBF0F03030C5B22846FFF7B9
:100D30005FFF0A2094FBF0F100FB11403030C5B298
:100D40002846FFF755FF3FE042F2107094FBF0F0A9
:100D50003030C5B22846FFF74BFF42F2107094FBCB
:100D6000F0F100FB114084B24FF47A7094FBF0F084
:100D70003030C5B22846FFF73BFF4FF47A7094FB42
:100D8000F0F100FB114084B2642094FBF0F03030AD
:100D9000C5B22846FFF72CFF642094FBF0F100FB5E
:100DA000114084B20A2094FBF0F03030C5B22846DE
:100DB000FFF71EFF0A2094FBF0F100FB11403030DA
:100DC000C5B22846FFF714FF70BD00002020202088
:100DD0000000000020202000202000002DE9F04F1E
:100DE000064615461F46AA7C95F81690B9F1000FE5
:100DF00012DD924602EBDA7B4FEA6B0BB2EB4B0B48
:100E00000AD106EB020BBBF1540F05DCA9F1010B73
:100E10008B4501DC302901DDBDE8F08F0E2F00DDB0
:100E20000E278A464FEAE17B01EB5B7BCBF3CF08D1
:100E30004FF0540A0AFB086A1FFA8AF08A464FEA02
:100E4000E17B01EB5B7B4FEAEB0BA1EBCB0B0BF0F8
:100E5000FF044FF0010A0AFA04FA0AF0FF04AB7A21
:100E60004FF0010C82E015F803A0B7EB1A1F0CDA63
:100E7000DFF80CA11AF800A04AEA040A4FFA8AFA2D
:100E8000DFF8FCB00BF800A00BE0DFF8F4A01AF8D4
:100E900000A02AEA040A4FFA8AFADFF8E4B00BF855
:100EA00000A000F1010A1FFA8AF015F803A00AF069
:100EB0000F0ABA450CDDDFF8C8A01AF800A04AEA0C
:100EC000040A4FFA8AFADFF8B8B00BF800A00BE07A
:100ED000DFF8ACA01AF800A02AEA040A4FFA8AFA4E
:100EE000DFF89CB00BF800A000F1010A1FFA8AF0AD
:100EF0005B1C02EBD27B4FEA6B0B9CFBFBFE0BFBFC
:100F00001ECBBBF1000F2FD1012C01DD641004E0DA
:100F10008024A8F1010A1FFA8AF84FF0540A0AFB4C
:100F2000086A1FFA8AF0934602EBDB7E4FEA6E0AEC
:100F30004FEAEA7E0AEB9E7E4FEAAE0EBAEB8E0EC9
:100F400009D0BEF1010F08D0BEF1020F07D0BEF1EB
:100F5000030F08D105E000BF05E0DB1C03E09B1C8C
:100F600001E05B1C00BF00BF0CF1010C02FB09FAA1
:100F70000AEBDA7BBCEB6B0F7FF775AF00BF4BE77B
:100F80006900002070B504460D460B2C01DC052DD0
:100F900000DD70BDC4EBC40040F0800041B2002011
:100FA00000F0E6FF45F0400041B2002000F0E0FF15
:100FB00000BFEEE730B554281BDA302919DACD1717
:100FC00001EB5575ED10C5EBC50505EB450500EBCF
:100FD0008505AAB2CD1701EB5575ED10A1EBC5053E
:100FE000ECB2044B9B5C0125A5402B435BB2014D49
:100FF000AB5430BD690000201D48006F40F0004038
:101000001B4908670846006F40F4006008670846FF
:10101000006E20F4F86008660846006E00F5A860CF
:1010200008660846006F20F0700008670846006FE9
:1010300008670846006F20F4005008670846006FF4
:1010400040F0804008670846006F20F0FE5000F135
:101050008070086700BF0648006D10F0400FFAD09E
:101060000348006F20F400600149086770470000E2
:1010700000E00F401348006840F002001249C1F838
:1010800008011248006812490860124812490860B5
:101090004FF0010001F1040108604FF0000001F180
:1010A0000401086001F1040108604FF0FF000B49E2
:1010B00008604FF000000A4908604FF0FF0009493E
:1010C0000860704708E10F4000E00F4008E60F405D
:1010D000500000204B434F4C20550040005400402E
:1010E000205400401C55004038B57048006840F05E
:1010F00020006F49C1F808016C48006800906D48F5
:101100006D4908604FF01F016C480068C0F8241555
:101110004FF00004B7E004EB4402694B03EB82019B
:101120000B78012202FA03F04A78012A09D1634AB6
:101130001268D2F800240243604B1B68C3F80024F5
:1011400008E05E4A1268D2F8002482435B4B1B68B9
:10115000C3F800248A78012A09D1584A1268D2F8C3
:1011600010250243554B1B68C3F8102508E0534A6D
:101170001268D2F810258243504B1B68C3F8102523
:10118000CA78012A09D14D4A1268D2F81C250243B7
:101190004A4B1B68C3F81C2508E0484A1268D2F87D
:1011A0001C258243454B1B68C3F81C25CA794AB9E4
:1011B000424A1268D2F804248243404B1B68C3F8A9
:1011C000042408E03D4A1268D2F8042402433B4B51
:1011D0001B68C3F804240A7A012A09D1374A126825
:1011E000D2F808240243354B1B68C3F8082408E0F2
:1011F000324A1268D2F808248243304B1B68C3F885
:1012000008244A7A4AB92D4A1268D2F80C2482433B
:101210002A4B1B68C3F80C2408E0284A1268D2F84D
:101220000C240243254B1B68C3F80C248A7A012A3C
:1012300009D1224A1268D2F81C2402431F4B1B68B2
:10124000C3F81C2408E01D4A1268D2F81C2482430B
:101250001A4B1B68C3F81C24CA7A012A09D1174A01
:101260001268D2F810240243144B1B68C3F81024F0
:1012700008E0124A1268D2F8102482430F4B1B6810
:10128000C3F81024641C052CFFF445AF0D4800681A
:1012900020F47F0040F420000A4908604FF08040AD
:1012A00009490860FFF73EF838BD000008E10F402B
:1012B00000E00F404B434F4C205502404C000020B3
:1012C0009A2B00001CE400E000E100E02DE9F04171
:1012D000CF48007800287DD00020CD490870CD4847
:1012E000D0F800800068401CCA49086008460068C1
:1012F000092801D100200860C6480068032190FB3E
:10130000F1F4C448006890FBF1F201FB1205C248F9
:10131000C0490968405C582814D1C04A927D521EC9
:10132000631C5A43032303FB0422D1B2BB4A927DC0
:10133000521E6A4303FB0522D0B20023B84AFFF7CE
:101340004DFD2EE0B448B3490968405C4F2814D1E4
:10135000B24A927D521E631C5A43032303FB0422AC
:10136000D1B2AE4A927D521E6A4303FB0522D0B22F
:101370000023AC4AFFF732FD13E0A84A927D521ECB
:10138000631C5A43032303FB0422D1B2A34A927D78
:10139000521E6A4303FB0522D0B20023A24AFFF784
:1013A0001DFDB8F1080F04D1022602274FF00808EE
:1013B0000CE098480068401E032190FBF1F6954828
:1013C0000068401E90FBF1F201FB1207924810F8F2
:1013D000080000E04BE0582814D1904A927D521E3C
:1013E000731C5A43032303FB0622D1B28B4A927D1E
:1013F000521E7A4303FB0722D0B200238B4AFFF729
:10140000EDFC2DE0844810F808004F2814D1834AE1
:10141000927D521E731C5A43032303FB0622D1B252
:101420007E4A927D521E7A4303FB0722D0B20023EC
:101430007F4AFFF7D3FC13E0784A927D521E731C5B
:101440005A43032303FB0622D1B2744A927D521EF3
:101450007A4303FB0722D0B20023704AFFF7BEFC99
:10146000FFF7F6FA00F06CFD142000F019FA71484D
:10147000007800287DD067480068401CFAD0002022
:101480006C490870644863490968405C202871D140
:1014900060480068032190FBF1F45E48006890FB0F
:1014A000F1F201FB12056448007858283AD15B4AF2
:1014B000927D521E631C5A43032303FB0422D1B2C4
:1014C000564A927D521E6A4303FB0522D0B2002386
:1014D000564AFFF783FC584890F900004E494D4AA0
:1014E00012688854FFF7A6F800F0D8F8524890F92F
:1014F000000000F08BFA88B14F4890F90000FFF728
:10150000CBF8FFF753F828B1FFF736FAFFF714F9D5
:10151000BDE8F081FFF7C0F900BFFEE74F20464964
:1015200008703BE03D4A927D521E631C5A430323E0
:1015300003FB0422D1B2394A927D521E6A4303FB57
:101540000522D0B200233A4AFFF748FC3A4890F906
:10155000001031482F4A12688154FFF777F800F0E5
:1015600091F8354890F9000000F050FA98B13248EF
:1015700001E04AE02DE090F90000FFF78DF8FFF759
:1015800015F820B1FFF7F8F9FFF7D6F8C0E7FFF735
:1015900083F900BFFEE7582027490870FFF758FA83
:1015A00000F0CEFC25480068401C2449086008462D
:1015B0000068092826D100F093FCFEF7F7FF20B160
:1015C000FFF7DAF9FFF7B8F8A2E7FFF765F900BF10
:1015D000FEE703210820FFF7D5FC19A0FFF724FB45
:1015E00004210820FFF7CEFC16A0FFF71DFB052104
:1015F0000820FFF7C7FC15A0FFF716FBFEF752FF08
:1016000000F09EFC142000F04BF900BF80E70000C2
:10161000540000201000002060000020E82200009C
:10162000842600006B2700009D250000CF230000CA
:10163000B624000055000020140000200C000020FB
:101640004E6F7400596F75720000000053706F7414
:10165000000000000146044A002002E00B5C135425
:10166000401C0828FADB7047880200200146044A23
:10167000002002E00B5C1354401C0828FADB704782
:10168000700200200348006840F008000249C1F8D9
:10169000FC037047FC5300400050004003480068C2
:1016A00040F010000249C1F8FC037047FC530040B1
:1016B0000050004010B50F48006840F004000E498B
:1016C000C1F8FC034FF0050000F0EAF80A48D0F832
:1016D000FC0340F008000849C1F8FC03052000F0B5
:1016E000DFF80548D0F8FC0340F010000249C1F8CB
:1016F000FC0310BDFC5300400050004010B50446F0
:10170000FFF77AFC4948006840F02000474908602C
:1017100047A0FFF7ABFF0020484908604849086030
:1017200048490860484908604849086048490860D5
:101730004848494908600F20414908610020486134
:1017400046490860464804700020464908604649FA
:1017500008604648464908604148007820B9454835
:10176000486000F0F3F83AE03D48007801282BD1BA
:1017700041483F49486001203A4908602B480068C9
:1017800040F010002949086000F0E0F800203B49D3
:10179000C86008600220486041F63F7088620020FF
:1017A00088630120486288613548006820F47F0022
:1017B00040F46000324908604020324908604FF030
:1017C00001002E49C8600AE025480078022803D1AC
:1017D0002D482749486002E02C48254948602CA044
:1017E000FFF738FF00202D49C860086002204860DC
:1017F00019480068401E8862002088630120486202
:1018000088611F481830006820F0FF0040F0400059
:101810001B49183108604FF080501A4908604FF09A
:1018200001001E49C860FEF7D3FD10BD04E60F405D
:1018300055542E362E303378000000003000002042
:1018400068020020400000203C0000202C00002006
:101850003400002000350C00180000202800002073
:10186000240000204400002048000020322A00000C
:101870001C0000205A2A0000822A00000040034079
:1018800044E400E008E100E0AA2A0000D22A0000B7
:1018900020202020202020200000000000500340B5
:1018A0001449096841F00401124A11601249C968DB
:1018B00021F00101104AD160002111600221516024
:1018C00040F6354141430122C2EB41210A4A91626F
:1018D000012151621146C96841F00101D16000BF88
:1018E0000549C96911F0010FFAD00121024A51627C
:1018F0007047000004E60F40002003400120044927
:101900004862044800684FEA1010034908607047B5
:1019100000400340A890034000C0004000B50848C4
:101920000068401E0749886201204862FEF74AFDB0
:1019300040F6E4414843000B0349086000BD000045
:1019400018000020005003402800002008B5274858
:10195000006840F001002649C1F804010846D0F8AB
:10196000080140F00100C1F8080122480068009019
:101970002048006800902048006B20F001001E49BC
:1019800008634FF02B0048624FF01A0088624FF056
:101990007000C8621948006820F00F0017490860FD
:1019A0000846006808601448006B40F001001249C6
:1019B00008631348006840F00300114908601148AB
:1019C000006840F003000F4908600F48006820F0ED
:1019D000FF0000F111000C490860A1F1040000684B
:1019E00020F00300A1F10401086008BD04E10F40EC
:1019F00000E00F4008E10F4000C00040C8CF0040A9
:101A0000204400401C4500402C4500402DE9F04793
:101A1000054600260027B0464FF0FF39F74890F9F9
:101A20000000A8420BD1F54890F90100A84206D168
:101A3000F24890F90200A84201D1B1467CE0EF489B
:101A400090F90300A8420CD1EC4890F90400A84298
:101A500007D1EA4890F90500A84202D14FF00109E8
:101A60006AE0E64890F90600A8420CD1E34890F9F4
:101A70000700A84207D1E14890F90800A84202D126
:101A80004FF0020958E0DD4890F90000A8420CD15F
:101A9000DA4890F90300A84207D1D84890F9060027
:101AA000A84202D14FF0030946E0D44890F9010062
:101AB000A8420CD1D14890F90400A84207D1CF48E0
:101AC00090F90700A84202D14FF0040934E0CB4856
:101AD00090F90200A8420CD1C84890F90500A8422C
:101AE00007D1C64890F90800A84202D14FF0050975
:101AF00022E0C24890F90000A8420CD1BF4890F9FA
:101B00000400A84207D1BD4890F90800A84202D1BC
:101B10004FF0060910E0B94890F90200A8420BD135
:101B2000B64890F90400A84206D1B44890F90600DE
:101B3000A84201D14FF00709B9F1080F2DD2DFE813
:101B400009F004090E13181D2227002601274FF063
:101B5000020823E0032604274FF005081EE00626AE
:101B600007274FF0080819E0002603274FF0060862
:101B700014E0012604274FF007080FE0022605278E
:101B80004FF008080AE0002604274FF0080805E097
:101B9000022604274FF0060800E000BF00BF1EB970
:101BA00017B9B8F1000F7CD0582D7BD1032096FBDC
:101BB000F0F0401C9249897D491E4843032196FB61
:101BC000F1F1032202FB0100C4B2104696FBF0F1D2
:101BD00002FB11608A49897D491E4843114696FBE4
:101BE000F1F201FB1261032202FB010000F0FF0A87
:101BF0000023844A21465046FFF7F0F8032097FB64
:101C0000F0F0401C7E49897D491E4843032197FB23
:101C1000F1F1032202FB0100C4B2104697FBF0F180
:101C200002FB11707649897D491E4843114697FB96
:101C3000F1F201FB1271032202FB010000F0FF0A26
:101C40000023704A21465046FFF7C8F8032098FB4E
:101C5000F0F0401C6A49897D491E4843032198FBE6
:101C6000F1F1032202FB0100C4B2104698FBF0F12F
:101C700002FB11806249897D491E4843114698FB49
:101C8000F1F201FB1281032202FB010000F0FF0AC6
:101C900000235C4A21465046FFF7A0F8FEF7E2FC1D
:101CA00001E002E109E0FEF729FCFEF7DBFC04207D
:101CB00055490860FEF7CCFE82E0032096FBF0F069
:101CC000401C4F49897D491E4843032196FBF1F191
:101CD000032202FB0100C4B2104696FBF0F102FBA6
:101CE00011604749897D491E4843114696FBF1F230
:101CF00001FB1261032202FB010000F0FF0A002336
:101D0000424A21465046FFF769F8032097FBF0F05E
:101D1000401C3B49897D491E4843032197FBF1F153
:101D2000032202FB0100C4B2104697FBF0F102FB54
:101D300011703349897D491E4843114697FBF1F2E2
:101D400001FB1271032202FB010000F0FF0A0023D5
:101D50002E4A21465046FFF741F8032098FBF0F049
:101D6000401C2749897D491E4843032198FBF1F116
:101D7000032202FB0100C4B2104698FBF0F102FB03
:101D800011801F49897D491E4843114698FBF1F295
:101D900001FB1281032202FB010000F0FF0A002375
:101DA0001A4A21465046FFF719F8FEF75BFCFEF78A
:101DB000D1FBFEF757FC082013490860FEF748FEE8
:101DC000B9F1080F62D2DFE809F0040E232D374184
:101DD0004B55002404E0E0B20621FFF7EBF8641C49
:101DE000302CF8DB53E0002404E0E0B21721FFF7C9
:101DF000E1F8641C302CF8DB49E0000060000020B2
:101E0000E822000084260000FC5302406B270000FB
:101E1000002404E0E0B22821FFF7CCF8641C302C49
:101E2000F8DB34E0002404E0E1B20620FFF7C2F85A
:101E3000641C302CF8DB2AE0002404E0E1B2172017
:101E4000FFF7B8F8641C302CF8DB20E0002404E035
:101E5000E1B22820FFF7AEF8641C302CF8DB16E066
:101E6000002404E0E1B2E0B2FFF7A4F8641C302CD7
:101E7000F8DB0CE0002406E0C4F12F02D1B2E0B29E
:101E8000FFF798F8641C302CF6DB00E000BF00BFC1
:101E9000FEF7DEFD0520FFF703FD00200449086082
:101EA000FEF7E0FB0120BDE8F0870020FBE7000023
:101EB000FC5302400CB5002101910DE0002100917E
:101EC00002E00099491C009140F66C420099914251
:101ED000F7DB0199491C019101998142EEDB0CBDB0
:101EE00010B50E2011490860FEF7DCFA0520FFF757
:101EF000D7FC00200E49C1F8FC03FEF79DFDFEF75C
:101F0000A7FD03210220FFF73DF80AA0FEF78CFE93
:101F100004210220FFF736F807A0FEF785FE4620D1
:101F2000FFF7BEFCFEF778FD10BD0000FC53024039
:101F3000005002404E6F000057696E6E65720000DF
:101F400010B502210920FFF71DF806490878FEF7B1
:101F50004FFE03210820FFF715F803A0FEF764FEEB
:101F600010BD0000140000205475726E00000000C7
:101F700098B900BF0F4AD26802F01002102AF9D0B7
:101F800000220D4B1A600B4A916000BF094AD268CB
:101F900002F01002102AF9D00AE000BF054AD26808
:101FA00012F0020FFAD04022034B1A60014A9160EE
:101FB0007047000000800040004100400120FFF712
:101FC0009DFBFFF791F8FFF755F8FEF75BFDFEF775
:101FD00033FDFEF73DFDFEF7EDFCFEF7CDFCFEF711
:101FE000ABFB3D48006840F010003B4908600A2008
:101FF000FFF760FF38483030006840F00100364994
:10200000303108603548006840F008003349086006
:102010003248FC30006820F008003049FC3108608C
:102020002F48006840F008002D4908602D480068DE
:1020300020F008002B4908600846406920F47040F1
:1020400048610020284908602648D0F8A40040F0E4
:1020500006002449C1F8A4000846006840F00800C2
:1020600008602248D0F8080140F0200020490860AC
:102070004FF00A00FFF71EFF1E48006840F00800FE
:102080001C4908601C48006840F008001A490860B4
:1020900021E0FFF71BF91348806A40F0080011495E
:1020A000886200BF0F48406810F0080FFAD013484C
:1020B0000068134908604FF008000A49C8601048DA
:1020C0000068B0F5006F03D308200E49086002E0F5
:1020D00000200C490860DCE708E60F40204402407D
:1020E0002845024000800340A080034000E00F40EC
:1020F00008E10F40005402401C550240A8800340F4
:1021000058000020FC530240000000000000005F67
:1021100000000007000700147F147F14242A7F2A80
:10212000122313086462364955225000050300004B
:10213000001C2241000041221C0014083E08140823
:10214000083E080800503000000808080808006031
:1021500060000020100804023E5149453E00427FC5
:10216000400042615149462141454B311814127FCC
:102170001027454545393C4A494930017109050355
:102180003649494936064949291E003636000000BD
:10219000563600000814224100141414141400418F
:1021A0002214080201510906324979413E7E11117B
:1021B000117E7F494949363E414141227F414122BA
:1021C0001C7F494949417F090909013E4149497A32
:1021D0007F0808087F00417F41002040413F017F88
:1021E000081422417F404040407F020C027F7F0460
:1021F00008107F3E4141413E7F090909063E415199
:10220000215E7F09192946464949493101017F016B
:10221000013F4040403F1F2040201F3F4038403F8B
:1022200063140814630708700807615149454300A7
:102230007F41410002040810200041417F00040258
:102240000102044040404040000102040020545478
:1022500054787F48444438384444442038444448FF
:102260007F3854545418087E0901020C5252523ED1
:102270007F0804047800447D40002040443D007FF6
:102280001028440000417F40007C041804787C083A
:1022900004047838444444387C1414140808141492
:1022A000187C7C080404084854545420043F4440DB
:1022B000203C4040207C1C2040201C3C4030403CC6
:1022C00044281028440C5050503C4464544C440062
:1022D0000836410000007F00000041360800100869
:1022E0000810081F247C241F424DE6000000000057
:1022F000000076000000280000000E0000000E0024
:102300000000010004000000000070000000C40E86
:102310000000C40E000000000000000000000000EB
:10232000000000008000008000000080800080002D
:102330000000800080008080000080808000C0C09D
:10234000C0000000FF0000FF000000FFFF00FF00D2
:102350000000FF00FF00FFFF0000FFFFFF00FFFF86
:10236000FFFFFFFFFF00FFFFFFFFFFFFFF00FFFF7B
:10237000FFFFFFFFFF00FFFFFFFFFFFFFF00FFFF6B
:10238000FFFFFFFFFF00FFFFFFFFFFFFFF00FFFF5B
:10239000FFFFFFFFFF00FFFFFFFFFFFFFF00FFFF4B
:1023A000FFFFFFFFFF00FFFFFFFFFFFFFF00FFFF3B
:1023B000FFFFFFFFFF00FFFFFFFFFFFFFF00FFFF2B
:1023C000FFFFFFFFFF00FFFFFFFFFFFFFF00FF42D8
:1023D0004DE600000000000000760000002800002C
:1023E000000E0000000E00000001000400000000CC
:1023F0000070000000C40E0000C40E0000000000C9
:1024000000000000000000000000008000008000CC
:10241000000080800080000000800080008080003C
:102420000080808000C0C0C0000000FF0000FF00EE
:102430000000FFFF00FF000000FF00FF00FFFF00A3
:1024400000FFFFFF00FFFFFFFFFFFFFF00F0000F97
:10245000FFF0000F00F00000FF00000F00FF000081
:10246000FF0000FF00FFFF000000FFFF00FFFF0074
:102470000000FFFF00FFFFF0000FFFFF00FFFFF075
:10248000000FFFFF00FFFF000000FFFF00FFFF0045
:102490000000FFFF00FF0000FF0000FF00F0000051
:1024A000FF00000F00F0000FFFF0000F00FFFFFF24
:1024B000FFFFFFFF00FF424DE600000000000000AC
:1024C00076000000280000000E0000000E00000052
:1024D000010004000000000070000000C40E0000B5
:1024E000C40E00000000000000000000000000001A
:1024F000000080000080000000808000800000005C
:10250000800080008080000080808000C0C0C0000B
:102510000000FF0000FF000000FFFF00FF000000C0
:10252000FF00FF00FFFF0000FFFFFF00FFFFFFFFB6
:10253000FFFFFF00FFFFF0000FFFFF00FFF00000B4
:10254000000FFF00FF0000000000FF00FF0000FF81
:10255000F000FF00F0000FFFFF000F00F000FFFF92
:10256000FF000F00F000FFFFFF000F00F0000FFF63
:10257000F0000F00FF0000FF0000FF00FF00000060
:102580000000FF00FFF00000000FFF00FFFFF00061
:102590000FFFFF00FFFFFFFFFFFFFF00FF424DE6C1
:1025A0000000000000000076000000280000000E7F
:1025B0000000000E00000001000400000000007098
:1025C000000000C40E0000C40E0000000000000067
:1025D00000000000000000000080000080000000FB
:1025E00080800080000000800080008080000080EB
:1025F000808000C0C0C0000000FF0000FF0000009D
:10260000FFFF00FF000000FF00FF00FFFF0000FFD2
:10261000FFFF0000000000000000000000000000BC
:1026200000000000FFFFFFFFFF000000FFFFFFFFB3
:10263000FF000000FFFFFFFFFF000000FFFFFFFFA4
:10264000FF000000FFFFFFFFFF000000FFFFFFFF94
:10265000FF000000FFFFFFFFFF000000FFFFFFFF84
:10266000FF000000FFFFFFFFFF000000FFFFFFFF74
:10267000FF0000000000000000000000000000005B
:10268000000000FF424DE600000000000000760060
:102690000000280000000E0000000E0000000100F5
:1026A00004000000000070000000C40E0000C40E12
:1026B000000000000000000000000000000000001A
:1026C000800000800000008080008000000080000A
:1026D00080008080000080808000C0C0C0000000BA
:1026E000FF0000FF000000FFFF00FF000000FF00F0
:1026F000FF00FFFF0000FFFFFF00000000000000E0
:102700000000000000000000000000FFFFFFFFFFCE
:10271000000000F00FFFF00F000000F000FF000FBE
:10272000000000FF000000FF000000FFFF00FFFFAF
:10273000000000FFFF00FFFF000000FF000000FF9F
:10274000000000F000FF000F000000F00FFFF00F8E
:10275000000000FFFFFFFFFF00000000000000007E
:1027600000000000000000000000FF424DE60000F5
:10277000000000000076000000280000000E0000AD
:10278000000E0000000100040000000000700000C6
:1027900000C40E0000C40E00000000000000000095
:1027A0000000000000000080000080000000808029
:1027B0000080000000800080008080000080808019
:1027C00000C0C0C0000000FF0000FF000000FFFFCD
:1027D00000FF000000FF00FF00FFFF0000FFFFFF01
:1027E00000000000000000000000000000000000E9
:1027F0000000FFFFFFFFFF000000FFF0000FFF00E1
:102800000000FF000000FF000000F000FF000F00CC
:102810000000F00FFFF00F000000F00FFFF00F00BE
:102820000000F000FF000F000000FF000000FF00AC
:102830000000FFF0000FFF000000FFFFFFFFFF00A0
:102840000000000000000000000000000000000088
:1028500000FF000000000000005F0000000700070C
:1028600000147F147F14242A7F2A12231308646221
:1028700036495522500005030000001C224100008B
:1028800041221C0014083E081408083E08080050A5
:1028900030000008080808080060600000201008E8
:1028A00004023E5149453E00427F40004261514989
:1028B000462141454B311814127F102745454539B3
:1028C0003C4A4949300171090503364949493606F0
:1028D0004949291E0036360000005636000008140B
:1028E000224100141414141400412214080201514E
:1028F0000906324979413E7E1111117E7F494949CD
:10290000363E414141227F4141221C7F4949494194
:102910007F090909013E4149497A7F0808087F007B
:10292000417F41002040413F017F081422417F4008
:102930004040407F020C027F7F0408107F3E4141EF
:10294000413E7F090909063E4151215E7F0919294F
:1029500046464949493101017F01013F4040403F1E
:102960001F2040201F3F4038403F63140814630776
:10297000087008076151494543007F414100020446
:102980000810200041417F00040201020440404041
:102990004040000102040020545454787F484444CD
:1029A000383844444420384444487F3854545418F8
:1029B000087E0901020C5252523E7F08040478003E
:1029C000447D40002040443D007F102844000041E9
:1029D0007F40007C041804787C0804047838444460
:1029E00044387C14141408081414187C7C0804045B
:1029F000084854545420043F4440203C4040207C2C
:102A00001C2040201C3C4030403C44281028440CF2
:102A10005050503C4464544C44000836410000007F
:102A20007F0000004136080010080810081F247CB1
:102A3000241F5468657265206973206E6F20677269
:102A40006164657220666F72204C616220313500CE
:102A50000000000000000000000053696D756C610B
:102A6000746564204E6F6B696135313130206F6E53
:102A7000205041312D300000000000000000000017
:102A800000005265616C204E6F6B696135313130E9
:102A9000206F6E205041372D322B53636F706520AD
:102AA0006F6E205041312D3000005265616C204E18
:102AB0006F6B696135313130206F6E205041372D99
:102AC00032000000000000000000000000000000D4
:102AD00000004E6F204E6F6B6961353131302C2014
:102AE0006E6F2073636F70650000000000000000CF
:102AF00000000000000000000000200000000000B6
:102B000000000000000000000000000000000000C5
:102B100000000000000000000000000000000000B5
:102B20000000544578615320697320696E697469A7
:102B3000616C697A656420666F72204C6162203135
:102B40003500000000000000000047726164696EFB
:102B500067206973206E6F7420696D706C656D6598
:102B60006E74656420666F722074686973206C618E
:102B70006200446F6E652067726164696E67000071
:102B80000000000000000000000000000000000045
:102B90000000000000000000000000000101000033
:102BA000000001000101010100010000000000001F
:102BB000000002010001000000000000000003010D
:102BC00000010000000000000000040001010000FE
:102BD0000000010001010000F82B000000000020AF
:102BE00060000000C0020000582C000060000020BF
:102BF000A0060000DC020000000000000000000051
:102C000000000000000000000000000000000000C4
:102C100080380100000000000000000000000000FB
:102C200000000000000000000000000000000000A4
:102C30000000000000000000000000000000000094
:102C400000000000005002400000000000000000F2
:082C500000000000000000007C
:040000050000026D88
:00000001FF
